:100000000C9472000C9494000C9494000C94940042
:100010000C9494000C9494000C9494000C94940010
:100020000C9494000C9494000C9494000C94940000
:100030000C9494000C9494000C9494000C949400F0
:100040000C9494000C9494000C9494000C949400E0
:100050000C9494000C9494000C9494000C94AA00BA
:100060000C9494000C9494000C9494000C949400C0
:100070000C9494000C9494000C9494000C949400B0
:100080000C9494000C9494000C9494000C949400A0
:100090000C9494000C9494000C9494000C94940090
:1000A0000C9494000C9494000C9494000C94940080
:1000B0000C9494000C9494000C9494000C94940070
:1000C0000C9494000C9494000C9494000C94940060
:1000D0000C9494000C9494000C9494000C94940050
:1000E0000C94940011241FBECFEFD1E2DEBFCDBF30
:1000F00000E00CBF12E0A0E0B2E0ECEAF2E000E0C9
:100100000BBF02C007900D92A030B107D9F71BBEFC
:1001100012E0A0E0B2E001C01D92A930B107E1F702
:100120000E9499000C9454010C94000008950895C5
:100130000895CF93DF930E94F2000E9498000E94DE
:100140009600C0E0D0E00E9497002097E1F30E9463
:100150000000F9CF1F920F920FB60F9211242F9328
:100160003F938F939F93AF93BF938091040290919D
:100170000502A0910602B091070230910802019693
:10018000A11DB11D232F2D5F2D3720F02D57019676
:10019000A11DB11D209308028093040290930502D3
:1001A000A0930602B0930702809100029091010291
:1001B000A0910202B09103020196A11DB11D80938E
:1001C000000290930102A0930202B0930302BF9138
:1001D000AF919F918F913F912F910F900FBE0F90F4
:1001E0001F901895789484B5826084BD84B5816031
:1001F00084BD85B5826085BD85B5816085BDEEE62F
:10020000F0E0808181608083E1E8F0E0108280810D
:1002100082608083808181608083E0E8F0E080817B
:1002200081608083E1EBF0E0808184608083E0EB9B
:10023000F0E0808181608083E1E9F0E0808182608C
:100240008083808181608083E0E9F0E0808181604B
:100250008083E1EAF0E08081826080838081816038
:100260008083E0EAF0E0808181608083E1E2F1E078
:10027000808182608083808181608083E0E2F1E020
:10028000808181608083EAE7F0E080818460808300
:1002900080818260808380818160808380818068AA
:0C02A00080831092C1000895F894FFCFF5
:00000001FF
